{
  "_format": "hh-sol-artifact-1",
  "contractName": "Ballot",
  "sourceName": "contracts/Ballot.sol",
  "abi": [
    {
      "inputs": [
        {
          "internalType": "bytes32[]",
          "name": "proposalNames",
          "type": "bytes32[]"
        },
        {
          "internalType": "address",
          "name": "_nftContractAddress",
          "type": "address"
        }
      ],
      "stateMutability": "nonpayable",
      "type": "constructor"
    },
    {
      "inputs": [
        {
          "internalType": "uint256",
          "name": "",
          "type": "uint256"
        }
      ],
      "name": "proposals",
      "outputs": [
        {
          "internalType": "bytes32",
          "name": "name",
          "type": "bytes32"
        },
        {
          "internalType": "uint256",
          "name": "voteCount",
          "type": "uint256"
        }
      ],
      "stateMutability": "view",
      "type": "function"
    },
    {
      "inputs": [
        {
          "internalType": "uint256",
          "name": "proposal",
          "type": "uint256"
        }
      ],
      "name": "vote",
      "outputs": [],
      "stateMutability": "nonpayable",
      "type": "function"
    },
    {
      "inputs": [
        {
          "internalType": "address",
          "name": "",
          "type": "address"
        }
      ],
      "name": "voters",
      "outputs": [
        {
          "internalType": "uint256",
          "name": "weight",
          "type": "uint256"
        },
        {
          "internalType": "bool",
          "name": "voted",
          "type": "bool"
        },
        {
          "internalType": "uint256",
          "name": "vote",
          "type": "uint256"
        }
      ],
      "stateMutability": "view",
      "type": "function"
    },
    {
      "inputs": [],
      "name": "walletHoldsToken",
      "outputs": [
        {
          "internalType": "bool",
          "name": "",
          "type": "bool"
        }
      ],
      "stateMutability": "view",
      "type": "function"
    },
    {
      "inputs": [],
      "name": "winnerName",
      "outputs": [
        {
          "internalType": "bytes32",
          "name": "winnerName_",
          "type": "bytes32"
        }
      ],
      "stateMutability": "view",
      "type": "function"
    },
    {
      "inputs": [],
      "name": "winningProposal",
      "outputs": [
        {
          "internalType": "uint256",
          "name": "winningProposal_",
          "type": "uint256"
        }
      ],
      "stateMutability": "view",
      "type": "function"
    }
  ],
  "bytecode": "0x60806040523480156200001157600080fd5b506040516200105c3803806200105c833981810160405281019062000037919062000340565b806000806101000a81548173ffffffffffffffffffffffffffffffffffffffff021916908373ffffffffffffffffffffffffffffffffffffffff16021790555060005b82518110156200010e5760026040518060400160405280858481518110620000a757620000a6620003a6565b5b602002602001015181526020016000815250908060018154018082558091505060019003906000526020600020906002020160009091909190915060008201518160000155602082015181600101555050808062000105906200040e565b9150506200007a565b5050506200045b565b6000604051905090565b600080fd5b600080fd5b600080fd5b6000601f19601f8301169050919050565b7f4e487b7100000000000000000000000000000000000000000000000000000000600052604160045260246000fd5b6200017b8262000130565b810181811067ffffffffffffffff821117156200019d576200019c62000141565b5b80604052505050565b6000620001b262000117565b9050620001c0828262000170565b919050565b600067ffffffffffffffff821115620001e357620001e262000141565b5b602082029050602081019050919050565b600080fd5b6000819050919050565b6200020e81620001f9565b81146200021a57600080fd5b50565b6000815190506200022e8162000203565b92915050565b60006200024b6200024584620001c5565b620001a6565b90508083825260208201905060208402830185811115620002715762000270620001f4565b5b835b818110156200029e57806200028988826200021d565b84526020840193505060208101905062000273565b5050509392505050565b600082601f830112620002c057620002bf6200012b565b5b8151620002d284826020860162000234565b91505092915050565b600073ffffffffffffffffffffffffffffffffffffffff82169050919050565b60006200030882620002db565b9050919050565b6200031a81620002fb565b81146200032657600080fd5b50565b6000815190506200033a816200030f565b92915050565b600080604083850312156200035a576200035962000121565b5b600083015167ffffffffffffffff8111156200037b576200037a62000126565b5b6200038985828601620002a8565b92505060206200039c8582860162000329565b9150509250929050565b7f4e487b7100000000000000000000000000000000000000000000000000000000600052603260045260246000fd5b7f4e487b7100000000000000000000000000000000000000000000000000000000600052601160045260246000fd5b6000819050919050565b60006200041b8262000404565b91507fffffffffffffffffffffffffffffffffffffffffffffffffffffffffffffffff820362000450576200044f620003d5565b5b600182019050919050565b610bf1806200046b6000396000f3fe608060405234801561001057600080fd5b50600436106100625760003560e01c80630121b93f14610067578063013cf08b14610083578063369c7cdb146100b4578063609ff1bd146100d2578063a3ec138d146100f0578063e2ba53f014610122575b600080fd5b610081600480360381019061007c919061070b565b610140565b005b61009d6004803603810190610098919061070b565b6103a1565b6040516100ab929190610760565b60405180910390f35b6100bc6103d5565b6040516100c991906107a4565b60405180910390f35b6100da610518565b6040516100e791906107bf565b60405180910390f35b61010a60048036038101906101059190610838565b6105a0565b60405161011993929190610865565b60405180910390f35b61012a6105d7565b604051610137919061089c565b60405180910390f35b60008060009054906101000a900473ffffffffffffffffffffffffffffffffffffffff1673ffffffffffffffffffffffffffffffffffffffff166370a08231336040518263ffffffff1660e01b815260040161019c91906108c6565b602060405180830381865afa1580156101b9573d6000803e3d6000fd5b505050506040513d601f19601f820116820180604052508101906101dd91906108f6565b1161021d576040517f08c379a0000000000000000000000000000000000000000000000000000000008152600401610214906109a6565b60405180910390fd5b600160003373ffffffffffffffffffffffffffffffffffffffff1673ffffffffffffffffffffffffffffffffffffffff16815260200190815260200160002060010160009054906101000a900460ff16156102ad576040517f08c379a00000000000000000000000000000000000000000000000000000000081526004016102a490610a12565b60405180910390fd5b60018060003373ffffffffffffffffffffffffffffffffffffffff1673ffffffffffffffffffffffffffffffffffffffff168152602001908152602001600020600001819055506000600160003373ffffffffffffffffffffffffffffffffffffffff1673ffffffffffffffffffffffffffffffffffffffff168152602001908152602001600020905060018160010160006101000a81548160ff02191690831515021790555081816002018190555080600001546002838154811061037657610375610a32565b5b906000526020600020906002020160010160008282546103969190610a90565b925050819055505050565b600281815481106103b157600080fd5b90600052602060002090600202016000915090508060000154908060010154905082565b60006104166040518060400160405280600c81526020017f6d73672e73656e6465723a2000000000000000000000000000000000000000008152503361060b565b6104756040518060400160405280601481526020017f6e6674436f6e7472616374416464726573733a2000000000000000000000000081525060008054906101000a900473ffffffffffffffffffffffffffffffffffffffff1661060b565b60008060009054906101000a900473ffffffffffffffffffffffffffffffffffffffff1673ffffffffffffffffffffffffffffffffffffffff166370a08231336040518263ffffffff1660e01b81526004016104d191906108c6565b602060405180830381865afa1580156104ee573d6000803e3d6000fd5b505050506040513d601f19601f8201168201806040525081019061051291906108f6565b11905090565b6000806000905060005b60028054905081101561059b57816002828154811061054457610543610a32565b5b906000526020600020906002020160010154111561058857600281815481106105705761056f610a32565b5b90600052602060002090600202016001015491508092505b808061059390610ac4565b915050610522565b505090565b60016020528060005260406000206000915090508060000154908060010160009054906101000a900460ff16908060020154905083565b600060026105e3610518565b815481106105f4576105f3610a32565b5b906000526020600020906002020160000154905090565b6106a38282604051602401610621929190610b8b565b6040516020818303038152906040527f319af333000000000000000000000000000000000000000000000000000000007bffffffffffffffffffffffffffffffffffffffffffffffffffffffff19166020820180517bffffffffffffffffffffffffffffffffffffffffffffffffffffffff83818316178352505050506106a7565b5050565b60008151905060006a636f6e736f6c652e6c6f679050602083016000808483855afa5050505050565b600080fd5b6000819050919050565b6106e8816106d5565b81146106f357600080fd5b50565b600081359050610705816106df565b92915050565b600060208284031215610721576107206106d0565b5b600061072f848285016106f6565b91505092915050565b6000819050919050565b61074b81610738565b82525050565b61075a816106d5565b82525050565b60006040820190506107756000830185610742565b6107826020830184610751565b9392505050565b60008115159050919050565b61079e81610789565b82525050565b60006020820190506107b96000830184610795565b92915050565b60006020820190506107d46000830184610751565b92915050565b600073ffffffffffffffffffffffffffffffffffffffff82169050919050565b6000610805826107da565b9050919050565b610815816107fa565b811461082057600080fd5b50565b6000813590506108328161080c565b92915050565b60006020828403121561084e5761084d6106d0565b5b600061085c84828501610823565b91505092915050565b600060608201905061087a6000830186610751565b6108876020830185610795565b6108946040830184610751565b949350505050565b60006020820190506108b16000830184610742565b92915050565b6108c0816107fa565b82525050565b60006020820190506108db60008301846108b7565b92915050565b6000815190506108f0816106df565b92915050565b60006020828403121561090c5761090b6106d0565b5b600061091a848285016108e1565b91505092915050565b600082825260208201905092915050565b7f446f6573206e6f7420686f6c642074686520726967687420616363657373204e60008201527f4654000000000000000000000000000000000000000000000000000000000000602082015250565b6000610990602283610923565b915061099b82610934565b604082019050919050565b600060208201905081810360008301526109bf81610983565b9050919050565b7f54686520766f74657220616c726561647920766f7465642e0000000000000000600082015250565b60006109fc601883610923565b9150610a07826109c6565b602082019050919050565b60006020820190508181036000830152610a2b816109ef565b9050919050565b7f4e487b7100000000000000000000000000000000000000000000000000000000600052603260045260246000fd5b7f4e487b7100000000000000000000000000000000000000000000000000000000600052601160045260246000fd5b6000610a9b826106d5565b9150610aa6836106d5565b9250828201905080821115610abe57610abd610a61565b5b92915050565b6000610acf826106d5565b91507fffffffffffffffffffffffffffffffffffffffffffffffffffffffffffffffff8203610b0157610b00610a61565b5b600182019050919050565b600081519050919050565b60005b83811015610b35578082015181840152602081019050610b1a565b60008484015250505050565b6000601f19601f8301169050919050565b6000610b5d82610b0c565b610b678185610923565b9350610b77818560208601610b17565b610b8081610b41565b840191505092915050565b60006040820190508181036000830152610ba58185610b52565b9050610bb460208301846108b7565b939250505056fea26469706673582212209360410dbdf7f9a44d39a35a57e4a303dfcf1ad1c6298ccd3d40816b565dabf364736f6c63430008110033",
  "linkReferences": {},
  "deployedLinkReferences": {}
}