{
  "_format": "hh-sol-artifact-1",
  "contractName": "BasicNft",
  "sourceName": "contracts/BasicNFT.sol",
  "abi": [
    {
      "inputs": [],
      "stateMutability": "nonpayable",
      "type": "constructor"
    },
    {
      "anonymous": false,
      "inputs": [
        {
          "indexed": true,
          "internalType": "address",
          "name": "owner",
          "type": "address"
        },
        {
          "indexed": true,
          "internalType": "address",
          "name": "approved",
          "type": "address"
        },
        {
          "indexed": true,
          "internalType": "uint256",
          "name": "tokenId",
          "type": "uint256"
        }
      ],
      "name": "Approval",
      "type": "event"
    },
    {
      "anonymous": false,
      "inputs": [
        {
          "indexed": true,
          "internalType": "address",
          "name": "owner",
          "type": "address"
        },
        {
          "indexed": true,
          "internalType": "address",
          "name": "operator",
          "type": "address"
        },
        {
          "indexed": false,
          "internalType": "bool",
          "name": "approved",
          "type": "bool"
        }
      ],
      "name": "ApprovalForAll",
      "type": "event"
    },
    {
      "anonymous": false,
      "inputs": [
        {
          "indexed": true,
          "internalType": "address",
          "name": "from",
          "type": "address"
        },
        {
          "indexed": true,
          "internalType": "address",
          "name": "to",
          "type": "address"
        },
        {
          "indexed": true,
          "internalType": "uint256",
          "name": "tokenId",
          "type": "uint256"
        }
      ],
      "name": "Transfer",
      "type": "event"
    },
    {
      "inputs": [],
      "name": "TOKEN_URI",
      "outputs": [
        {
          "internalType": "string",
          "name": "",
          "type": "string"
        }
      ],
      "stateMutability": "view",
      "type": "function"
    },
    {
      "inputs": [
        {
          "internalType": "address",
          "name": "to",
          "type": "address"
        },
        {
          "internalType": "uint256",
          "name": "tokenId",
          "type": "uint256"
        }
      ],
      "name": "approve",
      "outputs": [],
      "stateMutability": "nonpayable",
      "type": "function"
    },
    {
      "inputs": [
        {
          "internalType": "address",
          "name": "owner",
          "type": "address"
        }
      ],
      "name": "balanceOf",
      "outputs": [
        {
          "internalType": "uint256",
          "name": "",
          "type": "uint256"
        }
      ],
      "stateMutability": "view",
      "type": "function"
    },
    {
      "inputs": [
        {
          "internalType": "uint256",
          "name": "tokenId",
          "type": "uint256"
        }
      ],
      "name": "getApproved",
      "outputs": [
        {
          "internalType": "address",
          "name": "",
          "type": "address"
        }
      ],
      "stateMutability": "view",
      "type": "function"
    },
    {
      "inputs": [],
      "name": "getTokenCounter",
      "outputs": [
        {
          "internalType": "uint256",
          "name": "",
          "type": "uint256"
        }
      ],
      "stateMutability": "view",
      "type": "function"
    },
    {
      "inputs": [
        {
          "internalType": "address",
          "name": "owner",
          "type": "address"
        },
        {
          "internalType": "address",
          "name": "operator",
          "type": "address"
        }
      ],
      "name": "isApprovedForAll",
      "outputs": [
        {
          "internalType": "bool",
          "name": "",
          "type": "bool"
        }
      ],
      "stateMutability": "view",
      "type": "function"
    },
    {
      "inputs": [],
      "name": "mintNft",
      "outputs": [
        {
          "internalType": "uint256",
          "name": "",
          "type": "uint256"
        }
      ],
      "stateMutability": "nonpayable",
      "type": "function"
    },
    {
      "inputs": [],
      "name": "name",
      "outputs": [
        {
          "internalType": "string",
          "name": "",
          "type": "string"
        }
      ],
      "stateMutability": "view",
      "type": "function"
    },
    {
      "inputs": [
        {
          "internalType": "uint256",
          "name": "tokenId",
          "type": "uint256"
        }
      ],
      "name": "ownerOf",
      "outputs": [
        {
          "internalType": "address",
          "name": "",
          "type": "address"
        }
      ],
      "stateMutability": "view",
      "type": "function"
    },
    {
      "inputs": [
        {
          "internalType": "address",
          "name": "from",
          "type": "address"
        },
        {
          "internalType": "address",
          "name": "to",
          "type": "address"
        },
        {
          "internalType": "uint256",
          "name": "tokenId",
          "type": "uint256"
        }
      ],
      "name": "safeTransferFrom",
      "outputs": [],
      "stateMutability": "nonpayable",
      "type": "function"
    },
    {
      "inputs": [
        {
          "internalType": "address",
          "name": "from",
          "type": "address"
        },
        {
          "internalType": "address",
          "name": "to",
          "type": "address"
        },
        {
          "internalType": "uint256",
          "name": "tokenId",
          "type": "uint256"
        },
        {
          "internalType": "bytes",
          "name": "data",
          "type": "bytes"
        }
      ],
      "name": "safeTransferFrom",
      "outputs": [],
      "stateMutability": "nonpayable",
      "type": "function"
    },
    {
      "inputs": [
        {
          "internalType": "address",
          "name": "operator",
          "type": "address"
        },
        {
          "internalType": "bool",
          "name": "approved",
          "type": "bool"
        }
      ],
      "name": "setApprovalForAll",
      "outputs": [],
      "stateMutability": "nonpayable",
      "type": "function"
    },
    {
      "inputs": [
        {
          "internalType": "bytes4",
          "name": "interfaceId",
          "type": "bytes4"
        }
      ],
      "name": "supportsInterface",
      "outputs": [
        {
          "internalType": "bool",
          "name": "",
          "type": "bool"
        }
      ],
      "stateMutability": "view",
      "type": "function"
    },
    {
      "inputs": [],
      "name": "symbol",
      "outputs": [
        {
          "internalType": "string",
          "name": "",
          "type": "string"
        }
      ],
      "stateMutability": "view",
      "type": "function"
    },
    {
      "inputs": [
        {
          "internalType": "uint256",
          "name": "",
          "type": "uint256"
        }
      ],
      "name": "tokenURI",
      "outputs": [
        {
          "internalType": "string",
          "name": "",
          "type": "string"
        }
      ],
      "stateMutability": "pure",
      "type": "function"
    },
    {
      "inputs": [
        {
          "internalType": "address",
          "name": "from",
          "type": "address"
        },
        {
          "internalType": "address",
          "name": "to",
          "type": "address"
        },
        {
          "internalType": "uint256",
          "name": "tokenId",
          "type": "uint256"
        }
      ],
      "name": "transferFrom",
      "outputs": [],
      "stateMutability": "nonpayable",
      "type": "function"
    }
  ],
  "bytecode": "0x60806040523480156200001157600080fd5b506040518060400160405280600581526020017f446f6769650000000000000000000000000000000000000000000000000000008152506040518060400160405280600381526020017f444f47000000000000000000000000000000000000000000000000000000000081525081600090816200008f919062000449565b508060019081620000a1919062000449565b5050506000600681905550620000fa6040518060400160405280600e81526020017f6e5f746f6b656e436f756e7465720000000000000000000000000000000000008152506006546200010060201b620009e61760201c565b62000604565b620001a2828260405160240162000119929190620005d0565b6040516020818303038152906040527fb60e72cc000000000000000000000000000000000000000000000000000000007bffffffffffffffffffffffffffffffffffffffffffffffffffffffff19166020820180517bffffffffffffffffffffffffffffffffffffffffffffffffffffffff8381831617835250505050620001a660201b60201c565b5050565b60008151905060006a636f6e736f6c652e6c6f679050602083016000808483855afa5050505050565b600081519050919050565b7f4e487b7100000000000000000000000000000000000000000000000000000000600052604160045260246000fd5b7f4e487b7100000000000000000000000000000000000000000000000000000000600052602260045260246000fd5b600060028204905060018216806200025157607f821691505b60208210810362000267576200026662000209565b5b50919050565b60008190508160005260206000209050919050565b60006020601f8301049050919050565b600082821b905092915050565b600060088302620002d17fffffffffffffffffffffffffffffffffffffffffffffffffffffffffffffffff8262000292565b620002dd868362000292565b95508019841693508086168417925050509392505050565b6000819050919050565b6000819050919050565b60006200032a620003246200031e84620002f5565b620002ff565b620002f5565b9050919050565b6000819050919050565b620003468362000309565b6200035e620003558262000331565b8484546200029f565b825550505050565b600090565b6200037562000366565b620003828184846200033b565b505050565b5b81811015620003aa576200039e6000826200036b565b60018101905062000388565b5050565b601f821115620003f957620003c3816200026d565b620003ce8462000282565b81016020851015620003de578190505b620003f6620003ed8562000282565b83018262000387565b50505b505050565b600082821c905092915050565b60006200041e60001984600802620003fe565b1980831691505092915050565b60006200043983836200040b565b9150826002028217905092915050565b6200045482620001cf565b67ffffffffffffffff81111562000470576200046f620001da565b5b6200047c825462000238565b62000489828285620003ae565b600060209050601f831160018114620004c15760008415620004ac578287015190505b620004b885826200042b565b86555062000528565b601f198416620004d1866200026d565b60005b82811015620004fb57848901518255600182019150602085019450602081019050620004d4565b868310156200051b578489015162000517601f8916826200040b565b8355505b6001600288020188555050505b505050505050565b600082825260208201905092915050565b60005b838110156200056157808201518184015260208101905062000544565b60008484015250505050565b6000601f19601f8301169050919050565b60006200058b82620001cf565b62000597818562000530565b9350620005a981856020860162000541565b620005b4816200056d565b840191505092915050565b620005ca81620002f5565b82525050565b60006040820190508181036000830152620005ec81856200057e565b9050620005fd6020830184620005bf565b9392505050565b61256080620006146000396000f3fe608060405234801561001057600080fd5b50600436106101005760003560e01c806370a0823111610097578063b88d4fde11610066578063b88d4fde146102ad578063c2229fea146102c9578063c87b56dd146102e7578063e985e9c51461031757610100565b806370a082311461022557806378ce90351461025557806395d89b4114610273578063a22cb4651461029157610100565b806323b872dd116100d357806323b872dd1461019f57806342842e0e146101bb5780636352211e146101d75780636e02007d1461020757610100565b806301ffc9a71461010557806306fdde0314610135578063081812fc14610153578063095ea7b314610183575b600080fd5b61011f600480360381019061011a91906117cd565b610347565b60405161012c9190611815565b60405180910390f35b61013d610429565b60405161014a91906118c0565b60405180910390f35b61016d60048036038101906101689190611918565b6104bb565b60405161017a9190611986565b60405180910390f35b61019d600480360381019061019891906119cd565b610501565b005b6101b960048036038101906101b49190611a0d565b610618565b005b6101d560048036038101906101d09190611a0d565b610678565b005b6101f160048036038101906101ec9190611918565b610698565b6040516101fe9190611986565b60405180910390f35b61020f61071e565b60405161021c9190611a6f565b60405180910390f35b61023f600480360381019061023a9190611a8a565b610728565b60405161024c9190611a6f565b60405180910390f35b61025d6107df565b60405161026a91906118c0565b60405180910390f35b61027b6107fb565b60405161028891906118c0565b60405180910390f35b6102ab60048036038101906102a69190611ae3565b61088d565b005b6102c760048036038101906102c29190611c58565b6108a3565b005b6102d1610905565b6040516102de9190611a6f565b60405180910390f35b61030160048036038101906102fc9190611918565b610930565b60405161030e91906118c0565b60405180910390f35b610331600480360381019061032c9190611cdb565b610952565b60405161033e9190611815565b60405180910390f35b60007f80ac58cd000000000000000000000000000000000000000000000000000000007bffffffffffffffffffffffffffffffffffffffffffffffffffffffff1916827bffffffffffffffffffffffffffffffffffffffffffffffffffffffff1916148061041257507f5b5e139f000000000000000000000000000000000000000000000000000000007bffffffffffffffffffffffffffffffffffffffffffffffffffffffff1916827bffffffffffffffffffffffffffffffffffffffffffffffffffffffff1916145b80610422575061042182610a82565b5b9050919050565b60606000805461043890611d4a565b80601f016020809104026020016040519081016040528092919081815260200182805461046490611d4a565b80156104b15780601f10610486576101008083540402835291602001916104b1565b820191906000526020600020905b81548152906001019060200180831161049457829003601f168201915b5050505050905090565b60006104c682610aec565b6004600083815260200190815260200160002060009054906101000a900473ffffffffffffffffffffffffffffffffffffffff169050919050565b600061050c82610698565b90508073ffffffffffffffffffffffffffffffffffffffff168373ffffffffffffffffffffffffffffffffffffffff160361057c576040517f08c379a000000000000000000000000000000000000000000000000000000000815260040161057390611ded565b60405180910390fd5b8073ffffffffffffffffffffffffffffffffffffffff1661059b610b37565b73ffffffffffffffffffffffffffffffffffffffff1614806105ca57506105c9816105c4610b37565b610952565b5b610609576040517f08c379a000000000000000000000000000000000000000000000000000000000815260040161060090611e7f565b60405180910390fd5b6106138383610b3f565b505050565b610629610623610b37565b82610bf8565b610668576040517f08c379a000000000000000000000000000000000000000000000000000000000815260040161065f90611f11565b60405180910390fd5b610673838383610c8d565b505050565b610693838383604051806020016040528060008152506108a3565b505050565b6000806106a483610f86565b9050600073ffffffffffffffffffffffffffffffffffffffff168173ffffffffffffffffffffffffffffffffffffffff1603610715576040517f08c379a000000000000000000000000000000000000000000000000000000000815260040161070c90611f7d565b60405180910390fd5b80915050919050565b6000600654905090565b60008073ffffffffffffffffffffffffffffffffffffffff168273ffffffffffffffffffffffffffffffffffffffff1603610798576040517f08c379a000000000000000000000000000000000000000000000000000000000815260040161078f9061200f565b60405180910390fd5b600360008373ffffffffffffffffffffffffffffffffffffffff1673ffffffffffffffffffffffffffffffffffffffff168152602001908152602001600020549050919050565b6040518060800160405280605781526020016124d46057913981565b60606001805461080a90611d4a565b80601f016020809104026020016040519081016040528092919081815260200182805461083690611d4a565b80156108835780601f1061085857610100808354040283529160200191610883565b820191906000526020600020905b81548152906001019060200180831161086657829003601f168201915b5050505050905090565b61089f610898610b37565b8383610fc3565b5050565b6108b46108ae610b37565b83610bf8565b6108f3576040517f08c379a00000000000000000000000000000000000000000000000000000000081526004016108ea90611f11565b60405180910390fd5b6108ff8484848461112f565b50505050565b60006109133360065461118b565b6001600654610922919061205e565b600681905550600654905090565b60606040518060800160405280605781526020016124d4605791399050919050565b6000600560008473ffffffffffffffffffffffffffffffffffffffff1673ffffffffffffffffffffffffffffffffffffffff16815260200190815260200160002060008373ffffffffffffffffffffffffffffffffffffffff1673ffffffffffffffffffffffffffffffffffffffff16815260200190815260200160002060009054906101000a900460ff16905092915050565b610a7e82826040516024016109fc929190612092565b6040516020818303038152906040527fb60e72cc000000000000000000000000000000000000000000000000000000007bffffffffffffffffffffffffffffffffffffffffffffffffffffffff19166020820180517bffffffffffffffffffffffffffffffffffffffffffffffffffffffff83818316178352505050506111a9565b5050565b60007f01ffc9a7000000000000000000000000000000000000000000000000000000007bffffffffffffffffffffffffffffffffffffffffffffffffffffffff1916827bffffffffffffffffffffffffffffffffffffffffffffffffffffffff1916149050919050565b610af5816111d2565b610b34576040517f08c379a0000000000000000000000000000000000000000000000000000000008152600401610b2b90611f7d565b60405180910390fd5b50565b600033905090565b816004600083815260200190815260200160002060006101000a81548173ffffffffffffffffffffffffffffffffffffffff021916908373ffffffffffffffffffffffffffffffffffffffff160217905550808273ffffffffffffffffffffffffffffffffffffffff16610bb283610698565b73ffffffffffffffffffffffffffffffffffffffff167f8c5be1e5ebec7d5bd14f71427d1e84f3dd0314c0f7b2291e5b200ac8c7c3b92560405160405180910390a45050565b600080610c0483610698565b90508073ffffffffffffffffffffffffffffffffffffffff168473ffffffffffffffffffffffffffffffffffffffff161480610c465750610c458185610952565b5b80610c8457508373ffffffffffffffffffffffffffffffffffffffff16610c6c846104bb565b73ffffffffffffffffffffffffffffffffffffffff16145b91505092915050565b8273ffffffffffffffffffffffffffffffffffffffff16610cad82610698565b73ffffffffffffffffffffffffffffffffffffffff1614610d03576040517f08c379a0000000000000000000000000000000000000000000000000000000008152600401610cfa90612134565b60405180910390fd5b600073ffffffffffffffffffffffffffffffffffffffff168273ffffffffffffffffffffffffffffffffffffffff1603610d72576040517f08c379a0000000000000000000000000000000000000000000000000000000008152600401610d69906121c6565b60405180910390fd5b610d7f8383836001611213565b8273ffffffffffffffffffffffffffffffffffffffff16610d9f82610698565b73ffffffffffffffffffffffffffffffffffffffff1614610df5576040517f08c379a0000000000000000000000000000000000000000000000000000000008152600401610dec90612134565b60405180910390fd5b6004600082815260200190815260200160002060006101000a81549073ffffffffffffffffffffffffffffffffffffffff02191690556001600360008573ffffffffffffffffffffffffffffffffffffffff1673ffffffffffffffffffffffffffffffffffffffff168152602001908152602001600020600082825403925050819055506001600360008473ffffffffffffffffffffffffffffffffffffffff1673ffffffffffffffffffffffffffffffffffffffff16815260200190815260200160002060008282540192505081905550816002600083815260200190815260200160002060006101000a81548173ffffffffffffffffffffffffffffffffffffffff021916908373ffffffffffffffffffffffffffffffffffffffff160217905550808273ffffffffffffffffffffffffffffffffffffffff168473ffffffffffffffffffffffffffffffffffffffff167fddf252ad1be2c89b69c2b068fc378daa952ba7f163c4a11628f55a4df523b3ef60405160405180910390a4610f818383836001611339565b505050565b60006002600083815260200190815260200160002060009054906101000a900473ffffffffffffffffffffffffffffffffffffffff169050919050565b8173ffffffffffffffffffffffffffffffffffffffff168373ffffffffffffffffffffffffffffffffffffffff1603611031576040517f08c379a000000000000000000000000000000000000000000000000000000000815260040161102890612232565b60405180910390fd5b80600560008573ffffffffffffffffffffffffffffffffffffffff1673ffffffffffffffffffffffffffffffffffffffff16815260200190815260200160002060008473ffffffffffffffffffffffffffffffffffffffff1673ffffffffffffffffffffffffffffffffffffffff16815260200190815260200160002060006101000a81548160ff0219169083151502179055508173ffffffffffffffffffffffffffffffffffffffff168373ffffffffffffffffffffffffffffffffffffffff167f17307eab39ab6107e8899845ad3d59bd9653f200f220920489ca2b5937696c31836040516111229190611815565b60405180910390a3505050565b61113a848484610c8d565b6111468484848461133f565b611185576040517f08c379a000000000000000000000000000000000000000000000000000000000815260040161117c906122c4565b60405180910390fd5b50505050565b6111a58282604051806020016040528060008152506114c6565b5050565b60008151905060006a636f6e736f6c652e6c6f679050602083016000808483855afa5050505050565b60008073ffffffffffffffffffffffffffffffffffffffff166111f483610f86565b73ffffffffffffffffffffffffffffffffffffffff1614159050919050565b600181111561133357600073ffffffffffffffffffffffffffffffffffffffff168473ffffffffffffffffffffffffffffffffffffffff16146112a75780600360008673ffffffffffffffffffffffffffffffffffffffff1673ffffffffffffffffffffffffffffffffffffffff168152602001908152602001600020600082825461129f91906122e4565b925050819055505b600073ffffffffffffffffffffffffffffffffffffffff168373ffffffffffffffffffffffffffffffffffffffff16146113325780600360008573ffffffffffffffffffffffffffffffffffffffff1673ffffffffffffffffffffffffffffffffffffffff168152602001908152602001600020600082825461132a919061205e565b925050819055505b5b50505050565b50505050565b60006113608473ffffffffffffffffffffffffffffffffffffffff16611521565b156114b9578373ffffffffffffffffffffffffffffffffffffffff1663150b7a02611389610b37565b8786866040518563ffffffff1660e01b81526004016113ab949392919061236d565b6020604051808303816000875af19250505080156113e757506040513d601f19601f820116820180604052508101906113e491906123ce565b60015b611469573d8060008114611417576040519150601f19603f3d011682016040523d82523d6000602084013e61141c565b606091505b506000815103611461576040517f08c379a0000000000000000000000000000000000000000000000000000000008152600401611458906122c4565b60405180910390fd5b805181602001fd5b63150b7a0260e01b7bffffffffffffffffffffffffffffffffffffffffffffffffffffffff1916817bffffffffffffffffffffffffffffffffffffffffffffffffffffffff1916149150506114be565b600190505b949350505050565b6114d08383611544565b6114dd600084848461133f565b61151c576040517f08c379a0000000000000000000000000000000000000000000000000000000008152600401611513906122c4565b60405180910390fd5b505050565b6000808273ffffffffffffffffffffffffffffffffffffffff163b119050919050565b600073ffffffffffffffffffffffffffffffffffffffff168273ffffffffffffffffffffffffffffffffffffffff16036115b3576040517f08c379a00000000000000000000000000000000000000000000000000000000081526004016115aa90612447565b60405180910390fd5b6115bc816111d2565b156115fc576040517f08c379a00000000000000000000000000000000000000000000000000000000081526004016115f3906124b3565b60405180910390fd5b61160a600083836001611213565b611613816111d2565b15611653576040517f08c379a000000000000000000000000000000000000000000000000000000000815260040161164a906124b3565b60405180910390fd5b6001600360008473ffffffffffffffffffffffffffffffffffffffff1673ffffffffffffffffffffffffffffffffffffffff16815260200190815260200160002060008282540192505081905550816002600083815260200190815260200160002060006101000a81548173ffffffffffffffffffffffffffffffffffffffff021916908373ffffffffffffffffffffffffffffffffffffffff160217905550808273ffffffffffffffffffffffffffffffffffffffff16600073ffffffffffffffffffffffffffffffffffffffff167fddf252ad1be2c89b69c2b068fc378daa952ba7f163c4a11628f55a4df523b3ef60405160405180910390a461175d600083836001611339565b5050565b6000604051905090565b600080fd5b600080fd5b60007fffffffff0000000000000000000000000000000000000000000000000000000082169050919050565b6117aa81611775565b81146117b557600080fd5b50565b6000813590506117c7816117a1565b92915050565b6000602082840312156117e3576117e261176b565b5b60006117f1848285016117b8565b91505092915050565b60008115159050919050565b61180f816117fa565b82525050565b600060208201905061182a6000830184611806565b92915050565b600081519050919050565b600082825260208201905092915050565b60005b8381101561186a57808201518184015260208101905061184f565b60008484015250505050565b6000601f19601f8301169050919050565b600061189282611830565b61189c818561183b565b93506118ac81856020860161184c565b6118b581611876565b840191505092915050565b600060208201905081810360008301526118da8184611887565b905092915050565b6000819050919050565b6118f5816118e2565b811461190057600080fd5b50565b600081359050611912816118ec565b92915050565b60006020828403121561192e5761192d61176b565b5b600061193c84828501611903565b91505092915050565b600073ffffffffffffffffffffffffffffffffffffffff82169050919050565b600061197082611945565b9050919050565b61198081611965565b82525050565b600060208201905061199b6000830184611977565b92915050565b6119aa81611965565b81146119b557600080fd5b50565b6000813590506119c7816119a1565b92915050565b600080604083850312156119e4576119e361176b565b5b60006119f2858286016119b8565b9250506020611a0385828601611903565b9150509250929050565b600080600060608486031215611a2657611a2561176b565b5b6000611a34868287016119b8565b9350506020611a45868287016119b8565b9250506040611a5686828701611903565b9150509250925092565b611a69816118e2565b82525050565b6000602082019050611a846000830184611a60565b92915050565b600060208284031215611aa057611a9f61176b565b5b6000611aae848285016119b8565b91505092915050565b611ac0816117fa565b8114611acb57600080fd5b50565b600081359050611add81611ab7565b92915050565b60008060408385031215611afa57611af961176b565b5b6000611b08858286016119b8565b9250506020611b1985828601611ace565b9150509250929050565b600080fd5b600080fd5b7f4e487b7100000000000000000000000000000000000000000000000000000000600052604160045260246000fd5b611b6582611876565b810181811067ffffffffffffffff82111715611b8457611b83611b2d565b5b80604052505050565b6000611b97611761565b9050611ba38282611b5c565b919050565b600067ffffffffffffffff821115611bc357611bc2611b2d565b5b611bcc82611876565b9050602081019050919050565b82818337600083830152505050565b6000611bfb611bf684611ba8565b611b8d565b905082815260208101848484011115611c1757611c16611b28565b5b611c22848285611bd9565b509392505050565b600082601f830112611c3f57611c3e611b23565b5b8135611c4f848260208601611be8565b91505092915050565b60008060008060808587031215611c7257611c7161176b565b5b6000611c80878288016119b8565b9450506020611c91878288016119b8565b9350506040611ca287828801611903565b925050606085013567ffffffffffffffff811115611cc357611cc2611770565b5b611ccf87828801611c2a565b91505092959194509250565b60008060408385031215611cf257611cf161176b565b5b6000611d00858286016119b8565b9250506020611d11858286016119b8565b9150509250929050565b7f4e487b7100000000000000000000000000000000000000000000000000000000600052602260045260246000fd5b60006002820490506001821680611d6257607f821691505b602082108103611d7557611d74611d1b565b5b50919050565b7f4552433732313a20617070726f76616c20746f2063757272656e74206f776e6560008201527f7200000000000000000000000000000000000000000000000000000000000000602082015250565b6000611dd760218361183b565b9150611de282611d7b565b604082019050919050565b60006020820190508181036000830152611e0681611dca565b9050919050565b7f4552433732313a20617070726f76652063616c6c6572206973206e6f7420746f60008201527f6b656e206f776e6572206f7220617070726f76656420666f7220616c6c000000602082015250565b6000611e69603d8361183b565b9150611e7482611e0d565b604082019050919050565b60006020820190508181036000830152611e9881611e5c565b9050919050565b7f4552433732313a2063616c6c6572206973206e6f7420746f6b656e206f776e6560008201527f72206f7220617070726f76656400000000000000000000000000000000000000602082015250565b6000611efb602d8361183b565b9150611f0682611e9f565b604082019050919050565b60006020820190508181036000830152611f2a81611eee565b9050919050565b7f4552433732313a20696e76616c696420746f6b656e2049440000000000000000600082015250565b6000611f6760188361183b565b9150611f7282611f31565b602082019050919050565b60006020820190508181036000830152611f9681611f5a565b9050919050565b7f4552433732313a2061646472657373207a65726f206973206e6f74206120766160008201527f6c6964206f776e65720000000000000000000000000000000000000000000000602082015250565b6000611ff960298361183b565b915061200482611f9d565b604082019050919050565b6000602082019050818103600083015261202881611fec565b9050919050565b7f4e487b7100000000000000000000000000000000000000000000000000000000600052601160045260246000fd5b6000612069826118e2565b9150612074836118e2565b925082820190508082111561208c5761208b61202f565b5b92915050565b600060408201905081810360008301526120ac8185611887565b90506120bb6020830184611a60565b9392505050565b7f4552433732313a207472616e736665722066726f6d20696e636f72726563742060008201527f6f776e6572000000000000000000000000000000000000000000000000000000602082015250565b600061211e60258361183b565b9150612129826120c2565b604082019050919050565b6000602082019050818103600083015261214d81612111565b9050919050565b7f4552433732313a207472616e7366657220746f20746865207a65726f2061646460008201527f7265737300000000000000000000000000000000000000000000000000000000602082015250565b60006121b060248361183b565b91506121bb82612154565b604082019050919050565b600060208201905081810360008301526121df816121a3565b9050919050565b7f4552433732313a20617070726f766520746f2063616c6c657200000000000000600082015250565b600061221c60198361183b565b9150612227826121e6565b602082019050919050565b6000602082019050818103600083015261224b8161220f565b9050919050565b7f4552433732313a207472616e7366657220746f206e6f6e20455243373231526560008201527f63656976657220696d706c656d656e7465720000000000000000000000000000602082015250565b60006122ae60328361183b565b91506122b982612252565b604082019050919050565b600060208201905081810360008301526122dd816122a1565b9050919050565b60006122ef826118e2565b91506122fa836118e2565b92508282039050818111156123125761231161202f565b5b92915050565b600081519050919050565b600082825260208201905092915050565b600061233f82612318565b6123498185612323565b935061235981856020860161184c565b61236281611876565b840191505092915050565b60006080820190506123826000830187611977565b61238f6020830186611977565b61239c6040830185611a60565b81810360608301526123ae8184612334565b905095945050505050565b6000815190506123c8816117a1565b92915050565b6000602082840312156123e4576123e361176b565b5b60006123f2848285016123b9565b91505092915050565b7f4552433732313a206d696e7420746f20746865207a65726f2061646472657373600082015250565b600061243160208361183b565b915061243c826123fb565b602082019050919050565b6000602082019050818103600083015261246081612424565b9050919050565b7f4552433732313a20746f6b656e20616c7265616479206d696e74656400000000600082015250565b600061249d601c8361183b565b91506124a882612467565b602082019050919050565b600060208201905081810360008301526124cc81612490565b905091905056fe697066733a2f2f62616679626569673337696f6972373673376d67356f6f6265746e636f6a636d3363336878617379643472766964346a71687934676b61686567342f3f66696c656e616d653d302d5055472e6a736f6ea2646970667358221220b017c9728f09110ae02409daac67121b7db6e8f68d91eb226ede723d6e8039b464736f6c63430008110033",
  "linkReferences": {},
  "deployedLinkReferences": {}
}